:020000040000fa
:080000000001040000000000f3
:020000040000fa
:100200004fb620000eff20000e0188000000000005
:100210000c00070000212100010020001100070050
:10022000000020000000e000020032000000020098
:1002300000000000ae110200000000000040da00e3
:100240000000fe004440a900a01420000000e000cf
:100250000300320000002000a00188004440a800f4
:100260000000060091018800800078000000eb008b
:1002700015003700e280400032a0b4009101ba00be
:10028000e280400032a0b4009102ba00e280400057
:1002900032a0b4000002eb00472bde00f507b200ed
:1002a000602ce10004003a000059eb008301e900f2
:1002b000fdff3e00040037006128e100010032002c
:1002c0000082eb00040007001101ba000200e00008
:1002d000e8ff3a00000006003159ba008301e90046
:1002e0000c0032002159ba008301e90008003200f5
:1002f0000400e00003003a00e280400032a0b400b5
:10030000f5ff370011d9ba008301e900faff3a007e
:100310008100e800e180400032a0b4000000060047
:080320000040da000000fe00bd
:020000040000fa
:1000080090010000900100009001000090010000a4
:100018009001000090010000900100009001000094
:1000280090010000900100009001000032100000d3
:100038009001000090010000900100009001000074
:100048009001000090010000900100009001000064
:10005800900100006a10000090010000900100006b
:100068009001000090010000900100009001000044
:100078009001000090010000900100009001000034
:100088009001000090010000900100009001000024
:100098009001000090010000900100009001000014
:1000a8009001000090010000900100009001000004
:1000b80090010000900100009001000090010000f4
:1000c80090010000900100009001000090010000e4
:1000d80090010000900100009001000090010000d4
:1000e80090010000900100009001000090010000c4
:0800f8009001000090010000de
:020000040000fa
:1001080090010000900100009001000090010000a3
:100118009001000090010000900100009001000093
:1001280090010000900100009001000032100000d2
:100138009001000090010000900100009001000073
:100148009001000090010000900100009001000063
:10015800900100006a10000090010000900100006a
:100168009001000090010000900100009001000043
:100178009001000090010000900100009001000033
:100188009001000090010000900100009001000023
:100198009001000090010000900100009001000013
:1001a8009001000090010000900100009001000003
:1001b80090010000900100009001000090010000f3
:1001c80090010000900100009001000090010000e3
:1001d80090010000900100009001000090010000d3
:1001e80090010000900100009001000090010000c3
:0801f8009001000090010000dd
:020000040000fa
:0200000401f009
:040000000ac700002b
:020000040000fa
:1003280040400000404000004040000040400000c5
:1003380040400000404000004040000040400000b5
:1003480040400000404000004040000040400000a5
:100358004040000040400000404000004040000095
:100368004040000040400000404000004040000085
:1003780040400000403e000040400000403f000078
:100388003435000036370000383900003a3b0000a9
:100398003c3d00004040000040400000404000005c
:1003a80040000000010200000304000005060000f0
:1003b80007080000090a00000b0c00000d0e0000e1
:1003c8000f10000011120000131400001516000091
:1003d800171800001940000040400000404000008d
:1003e800401a00001b1c00001d1e00001f200000fa
:1003f80021220000232400002526000027280000d1
:10040800292a00002b2c00002d2e00002f30000080
:1004180031320000334000004040000040400000fe
:1004280040400000404000004040000040400000c4
:1004380040400000404000004040000040400000b4
:1004480040400000404000004040000040400000a4
:100458004040000040400000404000004040000094
:100468004040000040400000404000004040000084
:100478004040000040400000404000004040000074
:100488004040000040400000404000004040000064
:100498004040000040400000404000004040000054
:1004a8004040000040400000404000004040000044
:1004b8004040000040400000404000004040000034
:1004c8004040000040400000404000004040000024
:1004d8004040000040400000404000004040000014
:1004e8004040000040400000404000004040000004
:1004f80040400000404000004040000040400000f4
:1005080040400000404000004040000040400000e3
:1005180040400000404000004040000040400000d3
:10052800414200004344000045460000474800009f
:10053800494a00004b4c00004d4e00004f5000004f
:1005480051520000535400005556000057580000ff
:10055800595a00006162000063640000656600008b
:1005680067680000696a00006b6c00006d6e00002f
:100578006f700000717200007374000075760000df
:1005880077780000797a00003031000032330000bb
:100598003435000036370000383900002b2f0000b2
:1005a8000000000038310000303100003430000015
:0405b800000000003f
:020000040000fa
:1005bc000200fa00000f78001e01780010302200b3
:1005cc00517426000089be001e01780090b82a00e4
:1005dc00d1fc2e0020019800310198001e017800fa
:1005ec00e0cf2d00a18b290040019800510198000b
:1005fc001e0178006047250021032100600198004e
:10060c00710198001e017800001f2e00213d2c0066
:10061c0000099800110998001e0178006000b800cc
:10062c0020099800310998009e00780010002000e5
:10063c00c02898000080fa00000006000800fa00ac
:10064c001007980021079800320798001e009000b0
:10065c00780140001e009000b00890002008900027
:10066c0080007800f003200000806000000f410043
:10067c001e00900020099000b00990003e009000f0
:10068c000100200002004000838048001e01900001
:10069c002009980031099800220037002e009000a4
:1006ac00904078001e007800014878001e0fe8008a
:1006bc002e0090000000e800200798001e0090001b
:1006cc00780040000004b0009e0f500012003a0069
:1006dc001e009000f00040001e0090006c014000d5
:1006ec001e009000e80140001e00900064034000d2
:1006fc009e0390001e00900078004000810278005c
:10070c000202780006017800870078000a000700d2
:10071c001e009000780f40003e0090000000e900a1
:10072c00300798003e0090000000e000dbff3a002c
:10073c000080fa00000006004e00fa003017980006
:10074c004117980052179800631798007417980077
:10075c00051f980000b22000200798004e10900052
:10076c001001be0012179800231798005e1090001d
:10077c001002be00740f9800051798006e109000c0
:10078c001003be00560f9800670f98007e10900063
:10079c001001be00320f9800430f98000e18900005
:1007ac001002be00140f9800250f9800be10900088
:1007bc0000b22000808f500027003a000040eb0070
:1007cc0030479800200037003e1090006300400036
:1007dc0090427800254798003e109000e3004000be
:1007ec003e10900010407800804878003e10900039
:1007fc002e439000064878003e1090000000e80060
:10080c0090437800274798003e1090008000e80045
:10081c003e1090000080e80010407800804878007e
:10082c003e1090000080e800ae4090000148780037
:10083c003e10900064004000301798003e4090003d
:10084c000040e800304798003e409000ef4f5000c9
:10085c00ddff3600390037000040eb0030479800d0
:10086c00330037003e4090000080fb004200dd006a
:10087c00800078002e009000808040003e10900098
:10088c0010407800b04098003e1090000000e80046
:10089c00301798003e4090000080fb004200dd00c5
:1008ac00800078002e009000808040003e10900068
:1008bc0010407800a04098003e1090000000e80026
:1008cc00301798003e4090000080fb004200dd0095
:1008dc00800078002e009000808040003e10900038
:1008ec0010407800904098003e1090000000e80006
:1008fc00301798003e4090000080fb004200dd0065
:10090c00800078002e009000808040003e10900007
:10091c0010407800804878003e1090000000e800fd
:10092c00301798003e4090000040e8003047980097
:10093c003e409000ef4f5000caff3600d0c0b300cd
:10094c002047980080c0b3001047980020c0b30027
:10095c00004f78000040eb00304798004c01370006
:10096c003e409000f34f500043003e007e08900044
:10097c008e1090005e099000ee0990000002780045
:10098c008102780002007800830078000001620088
:10099c00018062006102b800541f9800651f980026
:1009ac005e1b9000ee1b9000c033dd0006002000a3
:1009bc00561f9800671f98005e1a9000ee1a900060
:1009cc006110b800501f9800611f98005e199000cc
:1009dc00ee19900002027200838272007e08900071
:1009ec008e1090000080ea008180ea003e099000a1
:1009fc00ce09900000037800810378000200780093
:100a0c008300780000016300018063006103b8007b
:100a1c00761f9800072798007e1890008e20900073
:100a2c00c000dd0000002000701f98000127980016
:100a3c007e1890008e2090006113b800761f9800ed
:100a4c00072798007e1990008e21900002007000fc
:100a5c008380700000007200818072007007980023
:100a6c00010f98009099270021a8250050079800a5
:100a7c0061079800750037003e409000f34f50001e
:100a8c0015003600be40900070c2b30080cf5000fd
:100a9c0011003e007e0990008e1190005e089000bf
:100aac00ee08900000016900818169003e08900009
:100abc00ce089000000069008180690070079800e2
:100acc00010f980010ba2e0091ed260050079800e7
:100adc00610798005d003700be40900070c2b30003
:100aec0080cf500049003600be409000b0c3b30028
:100afc0080cf500045003e005e099000ee0990004a
:100b0c003e089000ce0890000000710081807100ba
:100b1c007e0990008e11900000027800810278000e
:100b2c0002007800830078000001620001806200fe
:100b3c006102b80014279800252798001e23900006
:100b4c00ae239000c033dd0006002000162798006d
:100b5c00272798001e229000ae2290006110b8004a
:100b6c0010279800212798001e219000ae2190009c
:100b7c0002027200838272005e089000ee08900000
:100b8c003e099000ce0990000003780081037800a4
:100b9c00020078008300780000016300018063008c
:100bac006103b80036279800472798003e20900034
:100bbc00ce209000c000dd000000200030279800ff
:100bcc00412798003e209000ce2090006113b80081
:100bdc0036279800472798003e219000ce219000a0
:100bec00020070008380700000007200818072002f
:100bfc0070079800010f9800c0cd2b00b1f12800b0
:100c0c005007980061079800100037007e0990008b
:100c1c008e1190005e089000ee08900000016900b3
:100c2c00818169003e089000ce08900000006900a8
:100c3c008180690070079800010f9800601d2c00de
:100c4c0021a62c0050079800610798003e409000a8
:100c5c00ef4f5000450036003e4090000080fb00f6
:100c6c006f0060004200dd00800078002e009000d4
:100c7c00008240002e4090000080fb004200dd000e
:100c8c00800078002e009000008040001001be0013
:100c9c001e4090000080fb004200dd0080007800c8
:100cac002e009000008040001000be000001690082
:100cbc00818169001e80fb004200dd00800078000d
:100ccc002e009000008040001000be000001690062
:100cdc00818169003e4090000080fb006f00600045
:100cec004200dd00800078002e0090000080400063
:100cfc001000be000000690081806900cf09de0091
:100d0c000001d00082817100331f98004f01de007a
:100d1c000100d00000017100421f98003e1b9000a2
:100d2c00ce1b9000068abe002e4090000040e800ca
:100d3c00204798001e4090000040e80010479800a3
:100d4c001e4078000040e800004f78002e409000d4
:100d5c006f406000204798001e4090006f4060007c
:100d6c00104798009e4378006fcf63002e109000c0
:100d7c00cb00de001e1090004500dd00808070006e
:100d8c00111f98001e109000cb00de002e1090005a
:100d9c004500dd0080807000211f98007e009000cf
:100dac008e0890001e1a9000ae1a900004014000ac
:100dbc00858148001e089000ae089000020140009a
:100dcc00838148005e009000ee009000020140001c
:100ddc00838148003e4090000080fb006f00600063
:100dec004200dd00800078002e0090000080400062
:100dfc001000be00020040008380480030079800bd
:100e0c00410798003e0b9000ce0b9000160f9800f7
:100e1c00270f98005e089000ee089000300f9800a5
:100e2c00410f98000e109000ce00dd007e0890005f
:100e3c004200de0080807000512798007e089000f0
:100e4c00ce00dd000e1090004200de0080807000ad
:100e5c00612798005e219000ee219000520f9800bf
:100e6c00630f98001e129000ae129000740f980041
:100e7c00051798003e039000ce03900016179800bb
:100e8c00271798003e4090000040e800304798003b
:100e9c00be409000f0c4b30080cf5000b0fe3600ce
:100eac004e1090001001be001e109000ae1090006d
:100ebc0002004000838048004e1190000089be0063
:100ecc005e1090001001be007e0890008e10900005
:100edc0002004000838048005e1190000089be0033
:100eec006e1090001001be005e089000ee0890009d
:100efc0002004000838048006e1190000089be0003
:100f0c007e1090001001be003e089000ce089000ac
:100f1c0002004000838048007e1190000089be00d2
:100f2c000e1890001001be001e089000ae08900034
:100f3c0002004000838048000e1990000089be001a
:100f4c000080fa00000006001e00fa00500f980006
:100f5c00610f98005e0890001000be0030079800ea
:100f6c00410798005e089000b000900020009000af
:100f7c0050079800610798005e089000d000900020
:100f8c004000900070079800010f98005e089000d8
:100f9c00f000900060009000100f9800210f980056
:100fac005e0890009008900000089000300f9800a8
:100fbc00410f98005e0890007800400010079800e0
:100fcc005e089000b0089000200890008000780027
:100fdc00f003200000806000800078001e0090006c
:100fec00008f40000040eb00404798000d00370098
:100ffc004e4090000081fb001e0090009040780055
:10100c0000b2200000004100014878001e00900052
:10101c000000e800100798004e4090000040e800e7
:10102c00404798001e0090009e0f5000f0ff3a00c1
:10103c004e4090008080fb0000b220008080400079
:10104c0000c8b300804878004e4090000040e80093
:10105c0040479800ce40900080c3b30080cf500032
:10106c0026003600090037004e4090008080fb00bf
:10107c0000b22000808040000040eb0080487800e7
:10108c004e4090000040e80040479800ce40900051
:10109c00f0c3b30080cf5000f3ff3600760047005a
:1010ac00f20047006e0147006a034700e603470061
:1010bc008002780001027800820178000601780035
:1010cc008700780000b220009bfd07000040eb0079
:1010dc0040479800090037004e4090008080fb008c
:1010ec0000b22000808040000040eb008048780077
:1010fc004e4090000040e80040479800ce409000e1
:10110c0070c3b30080cf5000f3ff36005e08900030
:10111c00b0089000200890004300dd005febb700a2
:10112c005e089000b0089000200890004b09dd008c
:10113c004500de0000007100c508de005eebb70064
:10114c005e089000b0089000200890004309dd0074
:10115c004d00de0000007100cd08de005debb70035
:10116c005e089000b0089000200890004508de0052
:10117c00010020005cebb7005e089000b008900006
:10118c00200890004d08de00010020005bebb7004a
:10119c000040eb005aebb7000040eb0059ebb700f6
:1011ac000040eb0058ebb70076004700f200470018
:1011bc006e0147006a034700e6034700800278008f
:1011cc00010278008201780006017800870078001f
:1011dc0000b2200058fd0700660047006300400085
:1011ec00904078006e089000014878006e089000de
:1011fc000000e800600f9800660047000080e800df
:10120c00904078006e089000014878006e089000bd
:10121c000000e800600f9800660047000000e8003e
:10122c00904078006e089000014878006e0890009d
:10123c000000e800600f98006600470090407800be
:10124c006e089000014878006e0890000000e800dd
:10125c00600f98006a0047006300400090407800df
:10126c006e089000014878006e0890000000e800bd
:10127c00600f98006a0047000080e80090407800fa
:10128c006e089000014878006e0890000000e8009d
:10129c00600f98006a0047000000e800904078005a
:1012ac006e089000014878006e0890000000e8007d
:1012bc00600f98006a004700904078006e0890001c
:1012cc00014878006e0890000000e800600f98005c
:1012dc006e00470063004000904078006e0890005c
:1012ec00014878006e0890000000e800600f98003c
:1012fc006e0047000080e800904078006e08900077
:10130c00014878006e0890000000e800600f98001b
:10131c006e0047000000e800904078006e089000d6
:10132c00014878006e0890000000e800600f9800fb
:10133c006e004700904078006e08900001487800dd
:10134c006e0890000000e800600f980072004700e3
:10135c0063004000904078006e08900001487800cf
:10136c006e0890000000e800600f980072004700c3
:10137c000080e800904078006e08900001487800ea
:10138c006e0890000000e800600f980072004700a3
:10139c000000e800904078006e089000014878004a
:1013ac006e0890000000e800600f98007200470083
:1013bc00904078006e089000014878006e0890000c
:1013cc000000e800600f98007600470063004000c2
:1013dc00904078006e089000014878006e089000ec
:1013ec000000e800600f9800760047000080e800dd
:1013fc00904078006e089000014878006e089000cc
:10140c000000e800600f9800760047000000e8003c
:10141c00904078006e089000014878006e089000ab
:10142c000000e800600f98007600470090407800bc
:10143c006e089000014878006e0890000000e800eb
:10144c00600f98000080fa00000006000800fa0007
:10145c00100798001e00900020079800ae00900026
:10146c00114078008080fb0040192800e140780092
:10147c000040eb0060479800f0c3b30080cf5000f1
:10148c0002003e0011c0b300614798002e0090008e
:10149c000000e80020079800ee4090000104e000f6
:1014ac00eeff3a00ae0090001e009000008050004d
:1014bc000000e90063004000420020001100090018
:1014cc000200d8006300b900000f78001e00e8008d
:1014dc000080fa00000006000e00fa0010079800c9
:1014ec00210798002e00900050079800de00900015
:1014fc00114078008080fb0040192800e140780002
:10150c000040eb00404f9800f0c3b30080cf500078
:10151c0002003e0011c0b300414f98005e009000e5
:10152c000000e80050079800ce4890000104e0004d
:10153c00eeff3a00de0090002e009000008050007c
:10154c000000e90030079800be0090006380400066
:10155c0042002000110009000200d8006300b9000d
:10156c00000f78001e00900040079800ae0090001d
:10157c005107980048003700de00900011407800b9
:10158c008080fb0040192800614078000080fb003f
:10159c004200dd0000417800de0090000100e80010
:1015ac00104078008080fb004019280061407800d2
:1015bc000080fb004400de0000407100ce00900073
:1015cc00804878004e0090000000e800400798002a
:1015dc00de0090000100e800104078008080fb00e5
:1015ec0040192800614078000080fb004400dd00b9
:1015fc0000417800de0090000180e8001040780087
:10160c008080fb0040192800614078000080fb00be
:10161c004200de0000407100ce009000804878004f
:10162c004e0090000000e80040079800de0090009b
:10163c000180e800104078008080fb0040192800f1
:10164c00614078000080fb004600dd00004178001e
:10165c00de00900063804000104078008080fb002a
:10166c00401928006140780000407100ce009000c5
:10167c00804878004e0090000000e8004007980079
:10168c00de009000e4804000510798003e0090007e
:10169c006400500030079800be009000e48f5000aa
:1016ac00b5ff3c003e009000e10f500016003400e6
:1016bc00de009000114078008080fb00401928006b
:1016cc00614078000080fb004200dd0000417800a2
:1016dc00de0090000100e800104078008080fb00e4
:1016ec0040192800614078000080fb004400de00b7
:1016fc0000407100ce009000804878004e009000b1
:10170c000000e80040079800be009000e28f5000f7
:10171c0017003400de0090000100e8001040780053
:10172c008080fb0040192800614078000080fb009d
:10173c004400dd0000417800de0090000180e800ec
:10174c00104078008080fb00401928006140780030
:10175c000080fb004200de0000407100ce009000d3
:10176c00804878004e0090000000e8004007980088
:10177c00be009000e38f500015003400de00900096
:10178c000180e800104078008080fb0040192800a0
:10179c00614078000080fb004600dd0000417800cd
:1017ac00de00900063804000104078008080fb00d9
:1017bc00401928006140780000407100ce00900074
:1017cc00804878004e0090000000e8004007980028
:1017dc000040eb00ce00900080487800be009000e6
:1017ec0064801000630060001e0f10001e00780063
:1017fc000080fa00000006000200fa00000f7800da
:10180c001e80e80032002000110009000200d80000
:10181c004200dd000000e8000080fa000000060035
:10182c000a00fa0020079800310798004207980038
:10183c002e009000000f78000000eb0010079800bd
:10184c004d0037001e009000800078003e00900094
:10185c0000804000104078000000fb004280de0059
:10186c008000fb00f00320008080600040292800ed
:10187c00e14078001e007800014878001e0fe80057
:10188c001e009000800078003e0090000080400018
:10189c00104078000000fb00630060004401dd0094
:1018ac009e0090003e009000008040000000e80088
:1018bc00104078008000fb00000f200000806000ca
:1018cc004480de008000710040292800e14078004f
:1018dc001e007800014878001e0fe8009e00900062
:1018ec003e009000008040000000e80010407800ae
:1018fc000000fb006f0060004201dd009e009000c4
:10190c003e009000008040000080e800104078000d
:10191c008000fb00000c2000008060004680de0090
:10192c008000710040292800e14078001e007800fa
:10193c00014878001e0fe8009e0090003e009000c9
:10194c00008040000080e800104078008000fb0020
:10195c00f00320008080600040292800e1407800de
:10196c001e007800014878001e0fe8001e00900051
:10197c0063004000100798004e0090008080e90042
:10198c001e009000808f5000aeff3c009e00900027
:10199c004e009000808f50004e003d001e009000c5
:1019ac00800078003e0090000080400010407800dd
:1019bc000000fb004280de008000fb00f0032000f2
:1019cc008080600040292800e14078001e007800eb
:1019dc00014878001e0fe8004e0090008000e900de
:1019ec001e009000808f500012003a001e009000e4
:1019fc00800078003e00900000804000104078008d
:101a0c000000fb0063006000c400dd0040292800da
:101a1c00e14078001e007800014878001e0fe800b5
:101a2c009e007800d0c3b300804878001e0fe800f9
:101a3c00240037001e009000800078003e009000cb
:101a4c0000804000104078000000fb006300600044
:101a5c004401dd009e0090003e009000008040009c
:101a6c000000e800104078008000fb00000f200010
:101a7c00008060004480de00800071004029280056
:101a8c00e14078001e007800014878001e0fe80045
:101a9c009e0090003e009000008040000000e80096
:101aac00104078000000fb006f006000c200dd00f9
:101abc0040292800e14078001e0078000148780099
:101acc001e0fe8009e007800d0c3b3008048780059
:101adc001e0fe8009e0078000040eb008048780064
:101aec001e0fe8009e0078002e0090000080500031
:101afc000080fa00000006000000fa000040eb0035
:101b0c005ae8b7000080fa00000006000801fa004d
:101b1c00200799000040eb005ae9b700a29520007d
:101b2c00124178000280fb00800078002e009100aa
:101b3c0000804000104078000080fb00e04a8800e4
:101b4c000240e8005ae9b7000000eb00104b880097
:101b5c002e009100104078000080fb006f006000a8
:101b6c00300799003e009100e20f50007c003200db
:101b7c003e009100e20f500007003c003e00910037
:101b8c000000e000760032003e009100e10f5000b2
:101b9c000b003200720037003e009100e90f50003c
:101bac006f0032003e009100ea0f50006a003200d4
:101bbc003e009100e80f50005d00320068003700d5
:101bcc002e0091000000e800104078000004e000b6
:101bdc004f003d002e0091000000e80010407800fe
:101bec008080fb00f007200000806000e058880037
:101bfc000040eb00004f78000a0037001e81fb000c
:101c0c001e80fb00800078002e00910000804000b8
:101c1c000080e800904078000e00e8000171780028
:101c2c001e4fe80030c0b3009e4f1000f3ff36008b
:101c3c000040eb00004f7800100037009e81fb0045
:101c4c001e80fb00800078002e0091000080400078
:101c5c0066004000104178001e80fb00e30060002d
:101c6c000e00e80061407800004069008040780078
:101c7c0065004700817178001e4fe8009e80fb00d4
:101c8c00e0588000808f5000ecff3900124b800030
:101c9c00409620008000410010c8b30080487800b6
:101cac000200e800104b8800124b8000e0588000c6
:101cbc0080407800409620000000410001487800e8
:101ccc000200e800104b88000040eb00004f780049
:101cdc000b003700124b80009e80fb006500470014
:101cec006140780080407800409620000000410060
:101cfc00014878000200e800104b88001e4fe800f5
:101d0c009e80fb00e0588000808f5000f1ff39006e
:101d1c00114b800040962000808040000040eb007a
:101d2c00804878000040eb005ae9b7000c003700ff
:101d3c005a08a9005a28a900124b8000409620008e
:101d4c008000410000c0eb00804878000200e800f1
:101d5c00104b880002003700ca42a800ca42a900f2
:101d6c000040eb005ae9b700f00f2000e058880063
:101d7c000080fa00000006000200fa00004f780014
:101d8c005ac8bf00624060000004e00003003a0043
:101d9c001e407800110007000e0037001e04e00002
:101dac0009003200a2952000124178008280fb00cd
:101dbc00b0852000008040001e4878000240e800fa
:101dcc005ae9b70003003700ca42a800b0852000ca
:101ddc004eff07000080fa00000006000200fa0027
:101dec00004f78005ac8bf00614060000004e0005a
:101dfc001c003a00ca42a900d158800060a62000fd
:101e0c0000804000104078009e4f500003003a00c4
:101e1c00d05880000000e800d0588800d0588000ce
:101e2c00f40f500008003a00d158800060a6200042
:101e3c0000804000104078009e4f5000020032009d
:101e4c000000eb00d0588800d0588000f30f5000f1
:101e5c0022003a005a08a8000000eb00d058880075
:101e6c001e003700d0588000f70f500008003e00cd
:101e7c00d15880001e417800a0a7200000804000af
:101e8c0002487800d05880000000e800d058880044
:101e9c00d0c0b3009e4f100003003200a0c0b300ae
:101eac009e4f100008003a001ecbbf000040e80017
:101ebc001eebb7001ecbbf00e34f500007003a00eb
:101ecc0008000700050037001ecbbf000004e0002f
:101edc00020032000040eb001eebb7000080fa005d
:101eec00000006003e00fa0000802000b0f9070058
:101efc00a1a720008201200000802000cff907005c
:101f0c004202200031a9200000802000cbf90700fc
:101f1c008e00e800008020000bfc07008e00e8001b
:101f2c0075004700420120003dfe07000000eb0059
:101f3c00104b88000040eb00004f78000b0037007e
:101f4c00124b80009e80fb0080ab20000080400084
:101f5c009040780040962000000041000148780035
:101f6c000200e800104b88001e4fe80010c6b300ba
:101f7c009e4f1000f2ff3600104b80000000e9006d
:101f8c00104b88000040eb00004f78000b0037002e
:101f9c00124b80009e80fb0075004700614078006a
:101fac0080407800409620000000410001487800f5
:101fbc000200e800104b88001e4fe800b0c1b300cf
:101fcc009e4f1000f2ff3600124b8000409620000e
:101fdc0080004100d0c0b300804878000200e800c7
:101fec00104b8800124b800040962000800041006e
:101ffc00a0c0b300804878000200e800104b8800b5
:10200c00124b80004096200080004100d0c0b300ed
:10201c00804878000200e800104b8800124b8000ca
:10202c004096200080004100a0c0b300804878009a
:10203c000200e800104b8800114b800040962000f5
:10204c00808040000040eb00804878005a28a800af
:10205c000080fa0000000600809fbe00821f7800fe
:10206c003400f80000002000a00188000000fa00f5
:10207c008460a900cac2bf000080fb000000d10030
:10208c00614060008040780010c0b30001405000f7
:10209c00614060006140600000414000a12c2000c4
:1020ac0091407800d0cfb30000c0600002407000b7
:1020bc00cae2b7000080fa003400f9004f01780042
:1020cc004f00be00004006003600f800809fbe00a6
:1020dc00829fbe00849fbe00869fbe000400fa0053
:1020ec008da0a90008c2bf00644060000004e0009d
:1020fc000b003a0008c2bf000042b2000004e0002e
:10210c0007003a00001080001047980010c0b30080
:10211c0063eab7000040eb0064eab70049003700ff
:10212c0008c2bf00644060000004e00020003a00d8
:10213c0008c2bf000042b2000004e0001c003200e4
:10214c0063cabf000004e000080032000040eb004e
:10215c0063eab70010c0b30064eab7000010800057
:10216c00104b88000782a8003600370064cabf00f5
:10217c000004e000330032000010800065eab70074
:10218c0065cabf00fcfe0700114b800052a6200060
:10219c0012417800409620000080400002487800f0
:1021ac000100e800104b88000782a80025003700ca
:1021bc0008c2bf00644060000004e0001000320060
:1021cc0008c2bf000042b2000004e0000c003a005c
:1021dc000010800010479800114b800040962000a2
:1021ec0000804000104078000080fb001010880038
:1021fc000100e800104b88000782a800110037008e
:10220c0008c2bf00644060000004e0000d00320012
:10221c0008c2bf000042b2000004e0000900320016
:10222c00114b800040962000008040001040780048
:10223c000080fb00101088000100e800104b8800a3
:10224c000782a800104b8000f20f2000110009003b
:10225c000280d8008000fd00104b880085a0a900ea
:10226c008da0a8000080fa004f03be004f02be00f4
:10227c004f01be004f00be003600f90000400600c2
:10228c000200fa00004f78001e4078000083fb002b
:10229c000700200086007800006a28000009b800ba
:1022ac006130b9000302780000024200006a280085
:1022bc0000b8b90000024200840178000200be00a0
:1022cc00a60007000080fa00000006000000fa00db
:1022dc00de42a800de62a80007a2a9000782a800bf
:1022ec000762a9000742a9000702a90006e2a9009b
:1022fc0006c2a80006a2a900000120005010880008
:10230c00a109200091407800f0c8b30000c0600023
:10231c000044a0009ae0b700b10920009140780079
:10232c0080cfb30000c060000004a0009be0b700a9
:10233c008da0a8008dc0a80085a0a90085c0a9000b
:10234c0007e2a80008c2a8000080fa0000000600fe
:10235c000e00fa000040eb00004f780066004700ca
:10236c00612d280006000900315878007000b1007a
:10237c00e1fd0700d5ff07000000eb0020088800f6
:10238c00411020009140780000c3b30000c07000e1
:10239c0004e1b700204e2e001008880051092000df
:1023ac0091407800f0c8b30000c060000044a00069
:1023bc0095e0b7008460a9008c60a80005e1a80036
:1023cc000000eb003016880062cbbf000080fb00e1
:1023dc000000d10061406000614060004201dd00fe
:1023ec00a12c200091407800b0cfb30000c0600059
:1023fc0002407000cae2b700ca02a800b0c4b30021
:10240c009fff0700ca02a900b0c4b3009cff0700dd
:04241c00edff370099
:020000040000fa
:10242000600b000002000000020000003f000000fe
:10243000620b000002000000000000005e090000c6
:102440000801000000000000200b00004000000018
:1024500000000000660a0000ba0000000200000050
:10246000536563002d57650062536f00636b650011
:10247000742d4b0065793a002000640047686c00b9
:1024800049484e006862580042735a005342750032
:10249000623235006a5a51003d3d00003235380045
:1024a0004541460041352d0045393100342d340079
:1024b000374441002d39350043412d00433541005b
:1024c0004230440043383500423131000048540066
:1024d00054502f00312e3100203130003120530074
:1024e00077697400636869006e67200050726f003e
:1024f000746f63006f6c73000d0a55007067720093
:10250000616465003a207700656273006f636b0059
:1025100065740d000a436f006e6e65006374690098
:102520006f6e3a00205570006772610064650d009f
:102530000a536500632d5700656253006f636b009b
:1025400065742d0041636300657074003a200000db
:102550000000ff0000000000000800005e01000015
:08256000000000000000000073
:020000040000fa
:10256800f03fb1000180b10006003500ee0309001c
:1025780000000000403fb1000180b100fbff3d00ba
:102588001000b000203fb0000200350000800900b4
:08259800000000000000060035
:00000001FF
